{
	"data": {
		"bytecode": {
			"linkReferences": {},
			"object": "6080604052348015600e575f80fd5b5061027f8061001c5f395ff3fe608060405234801561000f575f80fd5b5060043610610029575f3560e01c8063ccdcf9d31461002d575b5f80fd5b6100476004803603810190610042919061013f565b610049565b005b80823373ffffffffffffffffffffffffffffffffffffffff167f728d66ead3a329bc4ee0a9577af99b7acd9812bbe575319dd7dad10c24b33edf87874260405161009593929190610219565b60405180910390a450505050565b5f80fd5b5f80fd5b5f80fd5b5f80fd5b5f80fd5b5f8083601f8401126100cc576100cb6100ab565b5b8235905067ffffffffffffffff8111156100e9576100e86100af565b5b602083019150836001820283011115610105576101046100b3565b5b9250929050565b5f819050919050565b61011e8161010c565b8114610128575f80fd5b50565b5f8135905061013981610115565b92915050565b5f805f8060608587031215610157576101566100a3565b5b5f85013567ffffffffffffffff811115610174576101736100a7565b5b610180878288016100b7565b945094505060206101938782880161012b565b92505060406101a48782880161012b565b91505092959194509250565b5f82825260208201905092915050565b828183375f83830152505050565b5f601f19601f8301169050919050565b5f6101e983856101b0565b93506101f68385846101c0565b6101ff836101ce565b840190509392505050565b6102138161010c565b82525050565b5f6040820190508181035f8301526102328185876101de565b9050610241602083018461020a565b94935050505056fea2646970667358221220048fd3b5ee04f0469f0021ef462ee3d9ad3d5256e0839691d4d8be6f9b52fcdd64736f6c634300081a0033",
			"opcodes": "PUSH1 0x80 PUSH1 0x40 MSTORE CALLVALUE DUP1 ISZERO PUSH1 0xE JUMPI PUSH0 DUP1 REVERT JUMPDEST POP PUSH2 0x27F DUP1 PUSH2 0x1C PUSH0 CODECOPY PUSH0 RETURN INVALID PUSH1 0x80 PUSH1 0x40 MSTORE CALLVALUE DUP1 ISZERO PUSH2 0xF JUMPI PUSH0 DUP1 REVERT JUMPDEST POP PUSH1 0x4 CALLDATASIZE LT PUSH2 0x29 JUMPI PUSH0 CALLDATALOAD PUSH1 0xE0 SHR DUP1 PUSH4 0xCCDCF9D3 EQ PUSH2 0x2D JUMPI JUMPDEST PUSH0 DUP1 REVERT JUMPDEST PUSH2 0x47 PUSH1 0x4 DUP1 CALLDATASIZE SUB DUP2 ADD SWAP1 PUSH2 0x42 SWAP2 SWAP1 PUSH2 0x13F JUMP JUMPDEST PUSH2 0x49 JUMP JUMPDEST STOP JUMPDEST DUP1 DUP3 CALLER PUSH20 0xFFFFFFFFFFFFFFFFFFFFFFFFFFFFFFFFFFFFFFFF AND PUSH32 0x728D66EAD3A329BC4EE0A9577AF99B7ACD9812BBE575319DD7DAD10C24B33EDF DUP8 DUP8 TIMESTAMP PUSH1 0x40 MLOAD PUSH2 0x95 SWAP4 SWAP3 SWAP2 SWAP1 PUSH2 0x219 JUMP JUMPDEST PUSH1 0x40 MLOAD DUP1 SWAP2 SUB SWAP1 LOG4 POP POP POP POP JUMP JUMPDEST PUSH0 DUP1 REVERT JUMPDEST PUSH0 DUP1 REVERT JUMPDEST PUSH0 DUP1 REVERT JUMPDEST PUSH0 DUP1 REVERT JUMPDEST PUSH0 DUP1 REVERT JUMPDEST PUSH0 DUP1 DUP4 PUSH1 0x1F DUP5 ADD SLT PUSH2 0xCC JUMPI PUSH2 0xCB PUSH2 0xAB JUMP JUMPDEST JUMPDEST DUP3 CALLDATALOAD SWAP1 POP PUSH8 0xFFFFFFFFFFFFFFFF DUP2 GT ISZERO PUSH2 0xE9 JUMPI PUSH2 0xE8 PUSH2 0xAF JUMP JUMPDEST JUMPDEST PUSH1 0x20 DUP4 ADD SWAP2 POP DUP4 PUSH1 0x1 DUP3 MUL DUP4 ADD GT ISZERO PUSH2 0x105 JUMPI PUSH2 0x104 PUSH2 0xB3 JUMP JUMPDEST JUMPDEST SWAP3 POP SWAP3 SWAP1 POP JUMP JUMPDEST PUSH0 DUP2 SWAP1 POP SWAP2 SWAP1 POP JUMP JUMPDEST PUSH2 0x11E DUP2 PUSH2 0x10C JUMP JUMPDEST DUP2 EQ PUSH2 0x128 JUMPI PUSH0 DUP1 REVERT JUMPDEST POP JUMP JUMPDEST PUSH0 DUP2 CALLDATALOAD SWAP1 POP PUSH2 0x139 DUP2 PUSH2 0x115 JUMP JUMPDEST SWAP3 SWAP2 POP POP JUMP JUMPDEST PUSH0 DUP1 PUSH0 DUP1 PUSH1 0x60 DUP6 DUP8 SUB SLT ISZERO PUSH2 0x157 JUMPI PUSH2 0x156 PUSH2 0xA3 JUMP JUMPDEST JUMPDEST PUSH0 DUP6 ADD CALLDATALOAD PUSH8 0xFFFFFFFFFFFFFFFF DUP2 GT ISZERO PUSH2 0x174 JUMPI PUSH2 0x173 PUSH2 0xA7 JUMP JUMPDEST JUMPDEST PUSH2 0x180 DUP8 DUP3 DUP9 ADD PUSH2 0xB7 JUMP JUMPDEST SWAP5 POP SWAP5 POP POP PUSH1 0x20 PUSH2 0x193 DUP8 DUP3 DUP9 ADD PUSH2 0x12B JUMP JUMPDEST SWAP3 POP POP PUSH1 0x40 PUSH2 0x1A4 DUP8 DUP3 DUP9 ADD PUSH2 0x12B JUMP JUMPDEST SWAP2 POP POP SWAP3 SWAP6 SWAP2 SWAP5 POP SWAP3 POP JUMP JUMPDEST PUSH0 DUP3 DUP3 MSTORE PUSH1 0x20 DUP3 ADD SWAP1 POP SWAP3 SWAP2 POP POP JUMP JUMPDEST DUP3 DUP2 DUP4 CALLDATACOPY PUSH0 DUP4 DUP4 ADD MSTORE POP POP POP JUMP JUMPDEST PUSH0 PUSH1 0x1F NOT PUSH1 0x1F DUP4 ADD AND SWAP1 POP SWAP2 SWAP1 POP JUMP JUMPDEST PUSH0 PUSH2 0x1E9 DUP4 DUP6 PUSH2 0x1B0 JUMP JUMPDEST SWAP4 POP PUSH2 0x1F6 DUP4 DUP6 DUP5 PUSH2 0x1C0 JUMP JUMPDEST PUSH2 0x1FF DUP4 PUSH2 0x1CE JUMP JUMPDEST DUP5 ADD SWAP1 POP SWAP4 SWAP3 POP POP POP JUMP JUMPDEST PUSH2 0x213 DUP2 PUSH2 0x10C JUMP JUMPDEST DUP3 MSTORE POP POP JUMP JUMPDEST PUSH0 PUSH1 0x40 DUP3 ADD SWAP1 POP DUP2 DUP2 SUB PUSH0 DUP4 ADD MSTORE PUSH2 0x232 DUP2 DUP6 DUP8 PUSH2 0x1DE JUMP JUMPDEST SWAP1 POP PUSH2 0x241 PUSH1 0x20 DUP4 ADD DUP5 PUSH2 0x20A JUMP JUMPDEST SWAP5 SWAP4 POP POP POP POP JUMP INVALID LOG2 PUSH5 0x6970667358 0x22 SLT KECCAK256 DIV DUP16 0xD3 0xB5 0xEE DIV CREATE CHAINID SWAP16 STOP 0x21 0xEF CHAINID 0x2E 0xE3 0xD9 0xAD RETURNDATASIZE MSTORE JUMP 0xE0 DUP4 SWAP7 SWAP2 0xD4 0xD8 0xBE PUSH16 0x9B52FCDD64736F6C634300081A003300 "
		},
		"gasEstimates": {
			"creation": {
				"codeDepositCost": "127800",
				"executionCost": "169",
				"totalCost": "127969"
			},
			"external": {
				"submitProof(bytes,uint256,uint256)": "infinite"
			}
		},
		"methodIdentifiers": {
			"submitProof(bytes,uint256,uint256)": "ccdcf9d3"
		}
	},
	"abi": [
		{
			"anonymous": false,
			"inputs": [
				{
					"indexed": true,
					"internalType": "address",
					"name": "submitter",
					"type": "address"
				},
				{
					"indexed": true,
					"internalType": "uint256",
					"name": "merkleRoot",
					"type": "uint256"
				},
				{
					"indexed": true,
					"internalType": "uint256",
					"name": "preimageCommitment",
					"type": "uint256"
				},
				{
					"indexed": false,
					"internalType": "bytes",
					"name": "proof",
					"type": "bytes"
				},
				{
					"indexed": false,
					"internalType": "uint256",
					"name": "timestamp",
					"type": "uint256"
				}
			],
			"name": "ProofSubmitted",
			"type": "event"
		},
		{
			"inputs": [
				{
					"internalType": "bytes",
					"name": "proof",
					"type": "bytes"
				},
				{
					"internalType": "uint256",
					"name": "merkleRoot",
					"type": "uint256"
				},
				{
					"internalType": "uint256",
					"name": "preimageCommitment",
					"type": "uint256"
				}
			],
			"name": "submitProof",
			"outputs": [],
			"stateMutability": "nonpayable",
			"type": "function"
		}
	]
}